{
  "contractName": "DecentralizedBank",
  "abi": [
    {
      "inputs": [
        {
          "internalType": "contract NewToken",
          "name": "_token",
          "type": "address"
        }
      ],
      "stateMutability": "nonpayable",
      "type": "constructor"
    },
    {
      "anonymous": false,
      "inputs": [
        {
          "indexed": true,
          "internalType": "address",
          "name": "user",
          "type": "address"
        },
        {
          "indexed": false,
          "internalType": "uint256",
          "name": "colateralAmount",
          "type": "uint256"
        },
        {
          "indexed": false,
          "internalType": "uint256",
          "name": "loanAmount",
          "type": "uint256"
        }
      ],
      "name": "Borrow",
      "type": "event"
    },
    {
      "anonymous": false,
      "inputs": [
        {
          "indexed": true,
          "internalType": "address",
          "name": "user",
          "type": "address"
        },
        {
          "indexed": false,
          "internalType": "uint256",
          "name": "tokenBalance",
          "type": "uint256"
        }
      ],
      "name": "CalculateTokenBalance",
      "type": "event"
    },
    {
      "anonymous": false,
      "inputs": [
        {
          "indexed": true,
          "internalType": "address",
          "name": "user",
          "type": "address"
        },
        {
          "indexed": false,
          "internalType": "uint256",
          "name": "etherAmount",
          "type": "uint256"
        },
        {
          "indexed": false,
          "internalType": "uint256",
          "name": "timeStart",
          "type": "uint256"
        }
      ],
      "name": "Deposit",
      "type": "event"
    },
    {
      "anonymous": false,
      "inputs": [
        {
          "indexed": true,
          "internalType": "address",
          "name": "user",
          "type": "address"
        },
        {
          "indexed": false,
          "internalType": "uint256",
          "name": "fee",
          "type": "uint256"
        }
      ],
      "name": "PayBack",
      "type": "event"
    },
    {
      "anonymous": false,
      "inputs": [
        {
          "indexed": true,
          "internalType": "address",
          "name": "user",
          "type": "address"
        },
        {
          "indexed": false,
          "internalType": "uint256",
          "name": "amount",
          "type": "uint256"
        },
        {
          "indexed": false,
          "internalType": "uint256",
          "name": "depositTime",
          "type": "uint256"
        }
      ],
      "name": "Withdraw",
      "type": "event"
    },
    {
      "inputs": [
        {
          "internalType": "address",
          "name": "",
          "type": "address"
        }
      ],
      "name": "colateralAmount",
      "outputs": [
        {
          "internalType": "uint256",
          "name": "",
          "type": "uint256"
        }
      ],
      "stateMutability": "view",
      "type": "function",
      "constant": true
    },
    {
      "inputs": [
        {
          "internalType": "address",
          "name": "",
          "type": "address"
        }
      ],
      "name": "depositStartTime",
      "outputs": [
        {
          "internalType": "uint256",
          "name": "",
          "type": "uint256"
        }
      ],
      "stateMutability": "view",
      "type": "function",
      "constant": true
    },
    {
      "inputs": [
        {
          "internalType": "address",
          "name": "",
          "type": "address"
        }
      ],
      "name": "etherBalanceOf",
      "outputs": [
        {
          "internalType": "uint256",
          "name": "",
          "type": "uint256"
        }
      ],
      "stateMutability": "view",
      "type": "function",
      "constant": true
    },
    {
      "inputs": [
        {
          "internalType": "address",
          "name": "",
          "type": "address"
        }
      ],
      "name": "isDeposited",
      "outputs": [
        {
          "internalType": "bool",
          "name": "",
          "type": "bool"
        }
      ],
      "stateMutability": "view",
      "type": "function",
      "constant": true
    },
    {
      "inputs": [
        {
          "internalType": "address",
          "name": "",
          "type": "address"
        }
      ],
      "name": "loanDueOf",
      "outputs": [
        {
          "internalType": "uint256",
          "name": "",
          "type": "uint256"
        }
      ],
      "stateMutability": "view",
      "type": "function",
      "constant": true
    },
    {
      "inputs": [
        {
          "internalType": "address",
          "name": "",
          "type": "address"
        }
      ],
      "name": "loanTaken",
      "outputs": [
        {
          "internalType": "bool",
          "name": "",
          "type": "bool"
        }
      ],
      "stateMutability": "view",
      "type": "function",
      "constant": true
    },
    {
      "inputs": [
        {
          "internalType": "address",
          "name": "",
          "type": "address"
        }
      ],
      "name": "tokenBalanceOf",
      "outputs": [
        {
          "internalType": "uint256",
          "name": "",
          "type": "uint256"
        }
      ],
      "stateMutability": "view",
      "type": "function",
      "constant": true
    },
    {
      "inputs": [],
      "name": "deposit",
      "outputs": [],
      "stateMutability": "payable",
      "type": "function",
      "payable": true
    },
    {
      "inputs": [],
      "name": "calculateTokenBalance",
      "outputs": [],
      "stateMutability": "nonpayable",
      "type": "function"
    },
    {
      "inputs": [
        {
          "internalType": "uint256",
          "name": "amount",
          "type": "uint256"
        }
      ],
      "name": "withdrawEther",
      "outputs": [],
      "stateMutability": "payable",
      "type": "function",
      "payable": true
    },
    {
      "inputs": [
        {
          "internalType": "uint256",
          "name": "amount",
          "type": "uint256"
        }
      ],
      "name": "withdrawToken",
      "outputs": [],
      "stateMutability": "nonpayable",
      "type": "function"
    },
    {
      "inputs": [
        {
          "internalType": "uint256",
          "name": "amount",
          "type": "uint256"
        }
      ],
      "name": "borrow",
      "outputs": [],
      "stateMutability": "nonpayable",
      "type": "function"
    },
    {
      "inputs": [],
      "name": "payBack",
      "outputs": [],
      "stateMutability": "nonpayable",
      "type": "function"
    }
  ],
  "bytecode": "0x60806040523480156200001157600080fd5b506040516200254938038062002549833981810160405281019062000037919062000095565b806000806101000a81548173ffffffffffffffffffffffffffffffffffffffff021916908373ffffffffffffffffffffffffffffffffffffffff1602179055505062000123565b6000815190506200008f8162000109565b92915050565b600060208284031215620000a857600080fd5b6000620000b8848285016200007e565b91505092915050565b6000620000ce82620000e9565b9050919050565b6000620000e282620000c1565b9050919050565b600073ffffffffffffffffffffffffffffffffffffffff82169050919050565b6200011481620000d5565b81146200012057600080fd5b50565b61241680620001336000396000f3fe6080604052600436106100c25760003560e01c80637f799fc71161007f5780639d06d413116100595780639d06d4131461026b578063c5ebeaec146102a8578063d0e30db0146102d1578063e42c08f2146102db576100c2565b80637f799fc7146101da5780638fe4f63d146101f15780639a6244981461022e576100c2565b8063019f64cc146100c7578063179fc99f146100de57806327d7d5921461011b5780633bed33ce1461015857806350baa62214610174578063737320241461019d575b600080fd5b3480156100d357600080fd5b506100dc610318565b005b3480156100ea57600080fd5b5061010560048036038101906101009190611b00565b6107b6565b6040516101129190611ec1565b60405180910390f35b34801561012757600080fd5b50610142600480360381019061013d9190611b00565b6107ce565b60405161014f9190611ec1565b60405180910390f35b610172600480360381019061016d9190611b52565b6107e6565b005b34801561018057600080fd5b5061019b60048036038101906101969190611b52565b610bd8565b005b3480156101a957600080fd5b506101c460048036038101906101bf9190611b00565b610f7f565b6040516101d19190611d66565b60405180910390f35b3480156101e657600080fd5b506101ef610f9f565b005b3480156101fd57600080fd5b5061021860048036038101906102139190611b00565b61119b565b6040516102259190611ec1565b60405180910390f35b34801561023a57600080fd5b5061025560048036038101906102509190611b00565b6111b3565b6040516102629190611d66565b60405180910390f35b34801561027757600080fd5b50610292600480360381019061028d9190611b00565b6111d3565b60405161029f9190611ec1565b60405180910390f35b3480156102b457600080fd5b506102cf60048036038101906102ca9190611b52565b6111eb565b005b6102d9611700565b005b3480156102e757600080fd5b5061030260048036038101906102fd9190611b00565b6119e4565b60405161030f9190611ec1565b60405180910390f35b60011515600660003373ffffffffffffffffffffffffffffffffffffffff1673ffffffffffffffffffffffffffffffffffffffff16815260200190815260200160002060009054906101000a900460ff161515146103ab576040517f08c379a00000000000000000000000000000000000000000000000000000000081526004016103a290611d81565b60405180910390fd5b60008054906101000a900473ffffffffffffffffffffffffffffffffffffffff1673ffffffffffffffffffffffffffffffffffffffff166323b872dd3330600460003373ffffffffffffffffffffffffffffffffffffffff1673ffffffffffffffffffffffffffffffffffffffff168152602001908152602001600020546040518463ffffffff1660e01b815260040161044793929190611d06565b602060405180830381600087803b15801561046157600080fd5b505af1158015610475573d6000803e3d6000fd5b505050506040513d601f19601f820116820180604052508101906104999190611b29565b6104d8576040517f08c379a00000000000000000000000000000000000000000000000000000000081526004016104cf90611e21565b60405180910390fd5b6008600560003373ffffffffffffffffffffffffffffffffffffffff1673ffffffffffffffffffffffffffffffffffffffff168152602001908152602001600020546105249190611f6c565b600560003373ffffffffffffffffffffffffffffffffffffffff1673ffffffffffffffffffffffffffffffffffffffff16815260200190815260200160002054600160003373ffffffffffffffffffffffffffffffffffffffff1673ffffffffffffffffffffffffffffffffffffffff168152602001908152602001600020546105ae9190611f16565b6105b89190611ff7565b600160003373ffffffffffffffffffffffffffffffffffffffff1673ffffffffffffffffffffffffffffffffffffffff168152602001908152602001600020819055506008600560003373ffffffffffffffffffffffffffffffffffffffff1673ffffffffffffffffffffffffffffffffffffffff168152602001908152602001600020546106479190611f6c565b600560003373ffffffffffffffffffffffffffffffffffffffff1673ffffffffffffffffffffffffffffffffffffffff168152602001908152602001600020819055506000600460003373ffffffffffffffffffffffffffffffffffffffff1673ffffffffffffffffffffffffffffffffffffffff168152602001908152602001600020819055506000600660003373ffffffffffffffffffffffffffffffffffffffff1673ffffffffffffffffffffffffffffffffffffffff16815260200190815260200160002060006101000a81548160ff0219169083151502179055503373ffffffffffffffffffffffffffffffffffffffff167f55092e6cc4938ce9f0acdaa9092b38cd6e54afca1671527784104006f7bcaae4600560003373ffffffffffffffffffffffffffffffffffffffff1673ffffffffffffffffffffffffffffffffffffffff168152602001908152602001600020546040516107ac9190611ec1565b60405180910390a2565b60016020528060005260406000206000915090505481565b60056020528060005260406000206000915090505481565b60011515600760003373ffffffffffffffffffffffffffffffffffffffff1673ffffffffffffffffffffffffffffffffffffffff16815260200190815260200160002060009054906101000a900460ff16151514610879576040517f08c379a000000000000000000000000000000000000000000000000000000000815260040161087090611de1565b60405180910390fd5b662386f26fc10000633b9aca00826108919190611f9d565b10156108d2576040517f08c379a00000000000000000000000000000000000000000000000000000000081526004016108c990611e01565b60405180910390fd5b600160003373ffffffffffffffffffffffffffffffffffffffff1673ffffffffffffffffffffffffffffffffffffffff16815260200190815260200160002054633b9aca00826109229190611f9d565b1115610963576040517f08c379a000000000000000000000000000000000000000000000000000000000815260040161095a90611dc1565b60405180910390fd5b633b9aca00816109739190611f9d565b600160003373ffffffffffffffffffffffffffffffffffffffff1673ffffffffffffffffffffffffffffffffffffffff168152602001908152602001600020546109bd9190611ff7565b600160003373ffffffffffffffffffffffffffffffffffffffff1673ffffffffffffffffffffffffffffffffffffffff1681526020019081526020016000208190555042600360003373ffffffffffffffffffffffffffffffffffffffff1673ffffffffffffffffffffffffffffffffffffffff168152602001908152602001600020819055506000600160003373ffffffffffffffffffffffffffffffffffffffff1673ffffffffffffffffffffffffffffffffffffffff168152602001908152602001600020541415610ae5576000600760003373ffffffffffffffffffffffffffffffffffffffff1673ffffffffffffffffffffffffffffffffffffffff16815260200190815260200160002060006101000a81548160ff0219169083151502179055505b3373ffffffffffffffffffffffffffffffffffffffff166108fc633b9aca0083610b0f9190611f9d565b9081150290604051600060405180830381858888f19350505050158015610b3a573d6000803e3d6000fd5b503373ffffffffffffffffffffffffffffffffffffffff167ff279e6a1f5e320cca91135676d9cb6e44ca8a08c0b88342bcdb1144f6511b56882600360003373ffffffffffffffffffffffffffffffffffffffff1673ffffffffffffffffffffffffffffffffffffffff1681526020019081526020016000205442610bbf9190611ff7565b604051610bcd929190611edc565b60405180910390a250565b60011515600760003373ffffffffffffffffffffffffffffffffffffffff1673ffffffffffffffffffffffffffffffffffffffff16815260200190815260200160002060009054906101000a900460ff16151514610c6b576040517f08c379a0000000000000000000000000000000000000000000000000000000008152600401610c6290611de1565b60405180910390fd5b600260003373ffffffffffffffffffffffffffffffffffffffff1673ffffffffffffffffffffffffffffffffffffffff16815260200190815260200160002054811115610ced576040517f08c379a0000000000000000000000000000000000000000000000000000000008152600401610ce490611dc1565b60405180910390fd5b610cf6336119fc565b600260003373ffffffffffffffffffffffffffffffffffffffff1673ffffffffffffffffffffffffffffffffffffffff16815260200190815260200160002054610d409190611f16565b600260003373ffffffffffffffffffffffffffffffffffffffff1673ffffffffffffffffffffffffffffffffffffffff1681526020019081526020016000208190555080600260003373ffffffffffffffffffffffffffffffffffffffff1673ffffffffffffffffffffffffffffffffffffffff16815260200190815260200160002054610dce9190611ff7565b600260003373ffffffffffffffffffffffffffffffffffffffff1673ffffffffffffffffffffffffffffffffffffffff1681526020019081526020016000208190555042600360003373ffffffffffffffffffffffffffffffffffffffff1673ffffffffffffffffffffffffffffffffffffffff1681526020019081526020016000208190555060008054906101000a900473ffffffffffffffffffffffffffffffffffffffff1673ffffffffffffffffffffffffffffffffffffffff166340c10f1933836040518363ffffffff1660e01b8152600401610eb0929190611d3d565b600060405180830381600087803b158015610eca57600080fd5b505af1158015610ede573d6000803e3d6000fd5b505050503373ffffffffffffffffffffffffffffffffffffffff167ff279e6a1f5e320cca91135676d9cb6e44ca8a08c0b88342bcdb1144f6511b56882600360003373ffffffffffffffffffffffffffffffffffffffff1673ffffffffffffffffffffffffffffffffffffffff1681526020019081526020016000205442610f669190611ff7565b604051610f74929190611edc565b60405180910390a250565b60076020528060005260406000206000915054906101000a900460ff1681565b60011515600760003373ffffffffffffffffffffffffffffffffffffffff1673ffffffffffffffffffffffffffffffffffffffff16815260200190815260200160002060009054906101000a900460ff16151514611032576040517f08c379a000000000000000000000000000000000000000000000000000000000815260040161102990611da1565b60405180910390fd5b61103b336119fc565b600260003373ffffffffffffffffffffffffffffffffffffffff1673ffffffffffffffffffffffffffffffffffffffff168152602001908152602001600020546110859190611f16565b600260003373ffffffffffffffffffffffffffffffffffffffff1673ffffffffffffffffffffffffffffffffffffffff1681526020019081526020016000208190555042600360003373ffffffffffffffffffffffffffffffffffffffff1673ffffffffffffffffffffffffffffffffffffffff168152602001908152602001600020819055503373ffffffffffffffffffffffffffffffffffffffff167f71e09de067baf9d165a02012a4a30cf9477ecb810cbda4c942a223a291ebf84f600260003373ffffffffffffffffffffffffffffffffffffffff1673ffffffffffffffffffffffffffffffffffffffff168152602001908152602001600020546040516111919190611ec1565b60405180910390a2565b60046020528060005260406000206000915090505481565b60066020528060005260406000206000915054906101000a900460ff1681565b60036020528060005260406000206000915090505481565b60001515600660003373ffffffffffffffffffffffffffffffffffffffff1673ffffffffffffffffffffffffffffffffffffffff16815260200190815260200160002060009054906101000a900460ff1615151461127e576040517f08c379a000000000000000000000000000000000000000000000000000000000815260040161127590611e81565b60405180910390fd5b60011515600760003373ffffffffffffffffffffffffffffffffffffffff1673ffffffffffffffffffffffffffffffffffffffff16815260200190815260200160002060009054906101000a900460ff16151514611311576040517f08c379a000000000000000000000000000000000000000000000000000000000815260040161130890611e41565b60405180910390fd5b60028161131e9190611f6c565b600160003373ffffffffffffffffffffffffffffffffffffffff1673ffffffffffffffffffffffffffffffffffffffff16815260200190815260200160002054101561139f576040517f08c379a000000000000000000000000000000000000000000000000000000000815260040161139690611e61565b60405180910390fd5b6002816113ac9190611f6c565b600560003373ffffffffffffffffffffffffffffffffffffffff1673ffffffffffffffffffffffffffffffffffffffff16815260200190815260200160002081905550600560003373ffffffffffffffffffffffffffffffffffffffff1673ffffffffffffffffffffffffffffffffffffffff16815260200190815260200160002054600160003373ffffffffffffffffffffffffffffffffffffffff1673ffffffffffffffffffffffffffffffffffffffff168152602001908152602001600020546114799190611ff7565b600160003373ffffffffffffffffffffffffffffffffffffffff1673ffffffffffffffffffffffffffffffffffffffff1681526020019081526020016000208190555080600460003373ffffffffffffffffffffffffffffffffffffffff1673ffffffffffffffffffffffffffffffffffffffff168152602001908152602001600020546115079190611f16565b600460003373ffffffffffffffffffffffffffffffffffffffff1673ffffffffffffffffffffffffffffffffffffffff168152602001908152602001600020819055506001600660003373ffffffffffffffffffffffffffffffffffffffff1673ffffffffffffffffffffffffffffffffffffffff16815260200190815260200160002060006101000a81548160ff02191690831515021790555060008054906101000a900473ffffffffffffffffffffffffffffffffffffffff1673ffffffffffffffffffffffffffffffffffffffff166340c10f1933836040518363ffffffff1660e01b81526004016115fd929190611d3d565b600060405180830381600087803b15801561161757600080fd5b505af115801561162b573d6000803e3d6000fd5b505050503373ffffffffffffffffffffffffffffffffffffffff167fe1979fe4c35e0cef342fef5668e2c8e7a7e9f5d5d1ca8fee0ac6c427fa4153af600560003373ffffffffffffffffffffffffffffffffffffffff1673ffffffffffffffffffffffffffffffffffffffff16815260200190815260200160002054600460003373ffffffffffffffffffffffffffffffffffffffff1673ffffffffffffffffffffffffffffffffffffffff168152602001908152602001600020546040516116f5929190611edc565b60405180910390a250565b662386f26fc1000034101561174a576040517f08c379a000000000000000000000000000000000000000000000000000000000815260040161174190611ea1565b60405180910390fd5b6000600160003373ffffffffffffffffffffffffffffffffffffffff1673ffffffffffffffffffffffffffffffffffffffff1681526020019081526020016000205411156118295761179b336119fc565b600260003373ffffffffffffffffffffffffffffffffffffffff1673ffffffffffffffffffffffffffffffffffffffff168152602001908152602001600020546117e59190611f16565b600260003373ffffffffffffffffffffffffffffffffffffffff1673ffffffffffffffffffffffffffffffffffffffff168152602001908152602001600020819055505b34600160003373ffffffffffffffffffffffffffffffffffffffff1673ffffffffffffffffffffffffffffffffffffffff168152602001908152602001600020546118749190611f16565b600160003373ffffffffffffffffffffffffffffffffffffffff1673ffffffffffffffffffffffffffffffffffffffff1681526020019081526020016000208190555042600360003373ffffffffffffffffffffffffffffffffffffffff1673ffffffffffffffffffffffffffffffffffffffff168152602001908152602001600020819055506001600760003373ffffffffffffffffffffffffffffffffffffffff1673ffffffffffffffffffffffffffffffffffffffff16815260200190815260200160002060006101000a81548160ff0219169083151502179055503373ffffffffffffffffffffffffffffffffffffffff167f90890809c654f11d6e72a28fa60149770a0d11ec6c92319d6ceb2bb0a4ea1a1534600360003373ffffffffffffffffffffffffffffffffffffffff1673ffffffffffffffffffffffffffffffffffffffff168152602001908152602001600020546040516119da929190611edc565b60405180910390a2565b60026020528060005260406000206000915090505481565b600080670de0b6b3a7640000600160008573ffffffffffffffffffffffffffffffffffffffff1673ffffffffffffffffffffffffffffffffffffffff16815260200190815260200160002054611a529190611f6c565b63bd014d7e611a619190611f9d565b9050600360008473ffffffffffffffffffffffffffffffffffffffff1673ffffffffffffffffffffffffffffffffffffffff1681526020019081526020016000205442611aae9190611ff7565b81611ab99190611f9d565b915050919050565b600081359050611ad08161239b565b92915050565b600081519050611ae5816123b2565b92915050565b600081359050611afa816123c9565b92915050565b600060208284031215611b1257600080fd5b6000611b2084828501611ac1565b91505092915050565b600060208284031215611b3b57600080fd5b6000611b4984828501611ad6565b91505092915050565b600060208284031215611b6457600080fd5b6000611b7284828501611aeb565b91505092915050565b611b848161202b565b82525050565b611b938161203d565b82525050565b6000611ba6602783611f05565b9150611bb1826120d1565b604082019050919050565b6000611bc9601f83611f05565b9150611bd482612120565b602082019050919050565b6000611bec602883611f05565b9150611bf782612149565b604082019050919050565b6000611c0f602783611f05565b9150611c1a82612198565b604082019050919050565b6000611c32603183611f05565b9150611c3d826121e7565b604082019050919050565b6000611c55602983611f05565b9150611c6082612236565b604082019050919050565b6000611c78603083611f05565b9150611c8382612285565b604082019050919050565b6000611c9b603683611f05565b9150611ca6826122d4565b604082019050919050565b6000611cbe602d83611f05565b9150611cc982612323565b604082019050919050565b6000611ce1601f83611f05565b9150611cec82612372565b602082019050919050565b611d0081612069565b82525050565b6000606082019050611d1b6000830186611b7b565b611d286020830185611b7b565b611d356040830184611cf7565b949350505050565b6000604082019050611d526000830185611b7b565b611d5f6020830184611cf7565b9392505050565b6000602082019050611d7b6000830184611b8a565b92915050565b60006020820190508181036000830152611d9a81611b99565b9050919050565b60006020820190508181036000830152611dba81611bbc565b9050919050565b60006020820190508181036000830152611dda81611bdf565b9050919050565b60006020820190508181036000830152611dfa81611c02565b9050919050565b60006020820190508181036000830152611e1a81611c25565b9050919050565b60006020820190508181036000830152611e3a81611c48565b9050919050565b60006020820190508181036000830152611e5a81611c6b565b9050919050565b60006020820190508181036000830152611e7a81611c8e565b9050919050565b60006020820190508181036000830152611e9a81611cb1565b9050919050565b60006020820190508181036000830152611eba81611cd4565b9050919050565b6000602082019050611ed66000830184611cf7565b92915050565b6000604082019050611ef16000830185611cf7565b611efe6020830184611cf7565b9392505050565b600082825260208201905092915050565b6000611f2182612069565b9150611f2c83612069565b9250827fffffffffffffffffffffffffffffffffffffffffffffffffffffffffffffffff03821115611f6157611f60612073565b5b828201905092915050565b6000611f7782612069565b9150611f8283612069565b925082611f9257611f916120a2565b5b828204905092915050565b6000611fa882612069565b9150611fb383612069565b9250817fffffffffffffffffffffffffffffffffffffffffffffffffffffffffffffffff0483118215151615611fec57611feb612073565b5b828202905092915050565b600061200282612069565b915061200d83612069565b9250828210156120205761201f612073565b5b828203905092915050565b600061203682612049565b9050919050565b60008115159050919050565b600073ffffffffffffffffffffffffffffffffffffffff82169050919050565b6000819050919050565b7f4e487b7100000000000000000000000000000000000000000000000000000000600052601160045260246000fd5b7f4e487b7100000000000000000000000000000000000000000000000000000000600052601260045260246000fd5b7f596f7520646f206e6f74206861766520616e20616374697665206c6f616e207460008201527f6f20726570617900000000000000000000000000000000000000000000000000602082015250565b7f4465706f7369742045544820746f2067657420546f6b656e205061796f757400600082015250565b7f52657175657374656420616d6f756e742065786365656473206163636f756e7460008201527f2062616c616e6365000000000000000000000000000000000000000000000000602082015250565b7f506c65617365206465706f736974206574686572206265666f7265207769746860008201527f64726177696e6700000000000000000000000000000000000000000000000000602082015250565b7f4d696e696d756d206f6620302e3031204554482073686f756c6420626520776960008201527f7468647261776e20617420612074696d65000000000000000000000000000000602082015250565b7f4572726f722c20746f6b656e207472616e73616374696f6e20776173206e6f7460008201527f20617070726f7665640000000000000000000000000000000000000000000000602082015250565b7f506c65617365206465706f73697420455448206173206120636f6c6c6174657260008201527f616c20666f7220796f7572206c6f616e00000000000000000000000000000000602082015250565b7f4465706f73697420636f6c6c61746572616c206d757374206265206174206c6560008201527f61737420353025206f66206c6f616e20616d6f756e7400000000000000000000602082015250565b7f506c6561736520636c656172206f6c64206c6f616e206265666f72652074616b60008201527f696e672061206e6577206f6e6500000000000000000000000000000000000000602082015250565b7f4d696e696d756d206465706f7369742076616c75653a20302e30312045544800600082015250565b6123a48161202b565b81146123af57600080fd5b50565b6123bb8161203d565b81146123c657600080fd5b50565b6123d281612069565b81146123dd57600080fd5b5056fea26469706673582212205b785b17eb89a221bd125f13bd26e87200412393ad577567d50007c89fb81d1d64736f6c63430008040033",
  "immutableReferences": {},
  "source": "//SPDX-License-Identifier: MIT\npragma solidity ^0.8.0;\n\nimport \"./NewToken.sol\";\n\ncontract DecentralizedBank {\n\n  NewToken private token;\n\n  mapping(address=>uint) public etherBalanceOf;\n  mapping(address=>uint) public tokenBalanceOf;\n  mapping(address=>uint) public depositStartTime;\n\n  mapping(address=>uint) public loanDueOf;\n  mapping(address=>uint) public colateralAmount;\n\n  mapping(address=>bool) public loanTaken;\n  mapping(address=>bool) public isDeposited;\n\n  event Deposit(address indexed user, uint etherAmount, uint timeStart);\n  event CalculateTokenBalance(address indexed user, uint tokenBalance);\n  event Withdraw(address indexed user, uint amount, uint depositTime);\n  event Borrow(address indexed user, uint colateralAmount, uint loanAmount);\n  event PayBack(address indexed user, uint fee);\n\n  constructor(NewToken _token) {\n    token = _token;\n  }\n\n  function deposit() public payable {\n    require(msg.value >= 1e16, \"Minimum deposit value: 0.01 ETH\");\n\n    if (etherBalanceOf[msg.sender] > 0){\n      tokenBalanceOf[msg.sender] = tokenBalanceOf[msg.sender] + _calculateTokenBalance(msg.sender);\n    }\n\n    etherBalanceOf[msg.sender] = etherBalanceOf[msg.sender] + msg.value;\n    depositStartTime[msg.sender] = block.timestamp;\n    isDeposited[msg.sender] = true;\n\n    emit Deposit(msg.sender, msg.value, depositStartTime[msg.sender]);\n  }\n\n  function calculateTokenBalance() public {\n    require(isDeposited[msg.sender] == true, \"Deposit ETH to get Token Payout\");\n\n    tokenBalanceOf[msg.sender] = tokenBalanceOf[msg.sender] +  _calculateTokenBalance(msg.sender);\n    depositStartTime[msg.sender] = block.timestamp;\n    \n    emit CalculateTokenBalance(msg.sender, tokenBalanceOf[msg.sender]);\n  }\n\n  function withdrawEther(uint amount) public payable {\n    require(isDeposited[msg.sender] == true, \"Please deposit ether before withdrawing\");\n    require(amount*1e9 >= 1e16, \"Minimum of 0.01 ETH should be withdrawn at a time\");\n    require(amount*1e9 <= etherBalanceOf[msg.sender], \"Requested amount exceeds account balance\");\n\n    etherBalanceOf[msg.sender] = etherBalanceOf[msg.sender] - amount*1e9;\n    depositStartTime[msg.sender] = block.timestamp;\n\n    if (etherBalanceOf[msg.sender] == 0){\n      isDeposited[msg.sender] = false;\n    }\n\n    payable(msg.sender).transfer(amount*1e9);\n\n    emit Withdraw(msg.sender, amount, block.timestamp - depositStartTime[msg.sender]);\n  }\n\n  function withdrawToken(uint amount) public {\n    require(isDeposited[msg.sender] == true, \"Please deposit ether before withdrawing\");\n    require(amount <= tokenBalanceOf[msg.sender], \"Requested amount exceeds account balance\");\n\n    tokenBalanceOf[msg.sender] = tokenBalanceOf[msg.sender] + _calculateTokenBalance(msg.sender);\n    tokenBalanceOf[msg.sender] = tokenBalanceOf[msg.sender] - amount;\n    depositStartTime[msg.sender] = block.timestamp;\n\n    token.mint(msg.sender, amount);\n\n    emit Withdraw(msg.sender, amount, block.timestamp - depositStartTime[msg.sender]);\n  }\n\n  function borrow(uint amount) public {\n    require(loanTaken[msg.sender] == false, \"Please clear old loan before taking a new one\");\n    require(isDeposited[msg.sender] == true, \"Please deposit ETH as a collateral for your loan\");\n    require(etherBalanceOf[msg.sender] >= amount/2, \"Deposit collateral must be at least 50% of loan amount\");\n\n    colateralAmount[msg.sender] = amount/2;\n    etherBalanceOf[msg.sender] = etherBalanceOf[msg.sender] - colateralAmount[msg.sender];\n    loanDueOf[msg.sender] = loanDueOf[msg.sender] + amount;\n    loanTaken[msg.sender] = true;\n\n    token.mint(msg.sender, amount);\n\n    emit Borrow(msg.sender, colateralAmount[msg.sender], loanDueOf[msg.sender]);\n  }\n\n  function payBack() public {\n    require(loanTaken[msg.sender] == true, \"You do not have an active loan to repay\");\n    require(token.transferFrom(msg.sender, address(this), loanDueOf[msg.sender]), \"Error, token transaction was not approved\");\n\n    etherBalanceOf[msg.sender] = etherBalanceOf[msg.sender] + colateralAmount[msg.sender] - colateralAmount[msg.sender]/8;\n    colateralAmount[msg.sender] = colateralAmount[msg.sender] / 8;\n\n    loanDueOf[msg.sender] = 0;\n    loanTaken[msg.sender] = false;\n\n    emit PayBack(msg.sender, colateralAmount[msg.sender]);\n  }\n\n  function _calculateTokenBalance(address account) private view returns (uint) {\n    uint interestPerSecond = 3170979198 * (etherBalanceOf[account] / 1e18);\n    return (interestPerSecond * (block.timestamp - depositStartTime[account]));\n  }\n}\n",
  "sourcePath": "/home/dhanush/Documents/Web3/decentralized-bank/src/contracts/DecentralizedBank.sol",
  "compiler": {
    "name": "solc",
    "version": "0.8.4+commit.c7e474f2.Emscripten.clang"
  },
  "schemaVersion": "3.2.3",
  "updatedAt": "2022-07-08T14:06:43.811Z",
  "networkType": "ethereum",
  "devdoc": {
    "kind": "dev",
    "methods": {},
    "version": 1
  },
  "userdoc": {
    "kind": "user",
    "methods": {},
    "version": 1
  }
}